S01F000041746D656C53747564696F50726F6A6563742D424954342E7372656383
S11300000C948D000C94AA000C94AA000C94AA00E1
S11300100C94AA000C94AA000C94AA000C94AA00B4
S11300200C94AA000C94AA000C94AA000C94AA00A4
S11300300C94AA000C94AA000C94AA000C94AA0094
S11300400C94AA000C94AA000C94AA000C94AA0084
S11300500C94AA000C94AA000C94AA000C94AA0074
S11300600C9454060C94AA000C94AA000C94AA00B4
S11300700C94AA000C94AA000C94AA000C94AA0054
S11300800C94AA000C94AA000C94AA000C94AA0044
S11300900C94AA000C94AA000C94AA000C94AA0034
S11300A09101A201B301C301D401E2017402F1017F
S11300B002021302240235024502550265028C0233
S11300C09702A302AC02B502BE02C702CF02D70256
S11300D0E002E702F002F8020003090329032E03F9
S11300E0330338033F0347034F0357038F038F033F
S11300F05F036C0373037A038403C603CF03D4033F
S1130100D903DE03E503ED03F503FD0305040C0445
S113011013041A0422042A04320411241FBECFEF4C
S1130120CDBFDFE3DEBF18E2A0E0B8E2EAE2F2E12D
S113013002C005900D92AE34B107D9F729E2AEE4BE
S1130140B8E201C01D92AA36B207E1F70E94760513
S11301500C94F3080C940000EF92FF920F931F93FA
S1130160CF93DF93E12CF12C00E010E019C00E9442
S1130170F606817099270C2E02C0880F991F0A94E5
S1130180E2F7082B192B219602C0C0E0D0E0C03161
S1130190D1056CF30115110539F48FEFE81AF80A4B
S11301A025E0E216F1048CF3C801DF91CF911F9191
S11301B00F91FF90EF9008958091692990E020912C
S11301C06528309166282817390738F0281B390B21
S11301D0209365283093662808951092652810921C
S11301E06628089580916929809362288091652802
S11301F090916628019680936528909366280895C7
S1130200809169298093642880916528909166285B
S113021001968093652890936628089580916428B8
S113022020E1829FC001112420916929822B8093AF
S113023065289093662808958091602818168CF498
S11302408150809360288091642820E1829FC001BE
S1130250112420916929822B809365289093662824
S11302600895809165289091662801968093652869
S113027090936628089580915F2818168CF4815015
S113028080935F288091642820E1829FC00111241B
S113029020916929822B809365289093662808957C
S11302A080916528909166280196809365289093A3
S11302B06628089580916528809363288091642836
S11302C020E1829FC001112420916929822B80930F
S11302D065289093662808958091632890E001969C
S11302E08093652890936628089580916929809366
S11302F04E28809165289091662801968093652800
S1130300909366280895E09169298E2F90E0FC016E
S11303103197EF30F10508F0E7C0E05BFF4F0C9434
S11303201208909162288091612889170CF0DCC032
S11303308091652890916628019680936528909312
S11303406628D2C0909162288091612898170CF099
S1130350CBC080916528909166280196809365288A
S113036090936628C1C09091622880916128981367
S1130370BBC080916528909166280196809365287A
S113038090936628B1C09091622880916128981753
S113039009F4AAC0809165289091662801968093FB
S11303A0652890936628A0C08091622881119CC022
S11303B08091652890916628019680936528909392
S11303C0662892C080916228882309F48DC08091A8
S11303D065289091662801968093652890936628F5
S11303E083C060E084E298E20E94CC0781117CC063
S11303F08091652890916628019680936528909352
S1130400662872C061E084E298E20E94CC07811100
S11304106BC0809165289091662801968093652829
S11304209093662861C062E084E298E20E94CC075F
S113043081115AC080916528909166280196809315
S113044065289093662850C063E084E298E20E9495
S1130450CC07811149C08091652890916628019646
S113046080936528909366283FC08FE398E20E94AA
S1130470D907811139C08091652890916628019629
S113048080936528909366282FC088E398E20E94A1
S1130490D907811129C08091652890916628019619
S11304A080936528909366281FC08FE398E20E948A
S11304B0D9078823C9F08091652890916628019610
S11304C080936528909366280FC088E398E20E9481
S11304D0D907882349F08091652890916628019670
S11304E0809365289093662880916528909166286A
S11304F0019680936528909366280895E091692970
S11305008E2F90E0FC013197EF30F10508F089C09F
S1130510E15AFF4F0C941208809162288F3024F422
S11305208F5F809362287DC0109262287AC0809188
S11305306228181624F481508093622872C08FE0D8
S1130540809362286EC060916128809162280E9425
S113055098068093622865C0609161288091622822
S11305600E949F06809362285CC0609161288091FC
S113057062280E94A8068093622853C06091612873
S1130580809162280E94B206809362284AC09091AA
S113059062288091612889238093622842C09091C7
S11305A0622880916128892B809362283AC09091B7
S11305B062288091612889278F708093622831C0D6
S11305C08091622880958F70809362282AC0609100
S11305D06128809162280E94B7068093622821C016
S11305E061E0809162280E94BD068093622819C050
S11305F061E0809162280E94C7068093622811C03E
S113060060916128809162280E94BD0680936228CF
S113061008C060916128809162280E94C706809377
S113062062288091652890916628019680936528B8
S1130630909366280895E09169298E2F90E0FC013B
S11306403197EF30F10508F06AC0E259FF4F0C947E
S11306501208809161288093622861C0809160288B
S1130660809362285CC080915F288093622857C081
S113067084E298E20E94B5078093622850C060E04B
S113068084E298E20E94CC078093622848C061E02B
S113069084E298E20E94CC078093622840C062E022
S11306A084E298E20E94CC078093622838C063E019
S11306B084E298E20E94CC078093622830C00E94B2
S11306C064088F709078992324F40197806F9F6F4A
S11306D001968093622823C082E398E20E949E07D9
S11306E0809362281CC08CE298E20E949E0780934B
S11306F0622815C0E0914E28F0E0E15BF74D80815F
S11307008F70809362280BC0E09161280E2E000C3C
S1130710FF0BE15BF74D80818F708093622880919D
S113072065289091662801968093652890936628A1
S113073008956091692982E398E20E944F078091AD
S11307406528909166280196809365289093662881
S11307500895609169298CE298E20E944F07809184
S11307606528909166280196809365289093662861
S11307700895E09169298E2F90E08031910508F069
S113078078C0FC01E358FF4F0C941208E0914E2806
S1130790F0E0E15BF74D8091622880836AC080912C
S11307A062288093612865C08091622880936028C4
S11307B060C08091622880935F285BC0609162284A
S11307C082E398E20E944F0754C040E0609162289F
S11307D082E398E20E9476074CC041E0609162286F
S11307E082E398E20E94760744C042E06091622866
S11307F082E398E20E9476073CC043E0609162285D
S113080082E398E20E94760734C06091622880E80F
S11308109AE00E94F3072DC06091622880E99AE073
S11308200E94F30726C0609162288CE298E20E943D
S11308304F071FC040E0609162288CE298E20E945A
S1130840760717C041E0609162288CE298E20E942A
S113085076070FC042E0609162288CE298E20E9421
S1130860760707C043E0609162288CE298E20E9418
S11308707607809165289091662801968093652873
S113088090936628089581E090E007C0E1EEF4E0DB
S11308903197F1F700C000000196E0916929F0E07A
S11308A0EE0FFF1FE651FE4A2081318128173907D8
S11308B068F7809165289091662801968093652851
S11308C0909366280895CF93DF9380916528909143
S11308D066280E94D4068093682849E659E267E6B0
S11308E078E20E94860660E082E398E20E944F0765
S11308F060E08CE298E20E944F072FE986E891E0DD
S1130900215080409040E1F700C0000060916528CC
S113091082E398E20E944F076091652870916628EF
S1130920729562956F7067277F7067278CE298E2F3
S11309300E944F072FED83E994E0215080409040BE
S1130940E1F700C0000060E082E398E20E944F07F4
S113095060E08CE298E20E944F072FE986E891E07C
S1130960215080409040E1F700C00000609167286A
S11309708CE298E20E944F0788E398E20E94D9072C
S11309808823D1F383E294EF0197F1F700C00000CC
S1130990C0E029C08FE398E20E94D907811123C0E7
S11309A0C11104C010926728C1E005C08091672876
S11309B08F5F80936728609167288CE298E20E9499
S11309C04F0783E294EF0197F1F700C000008FE333
S11309D098E20E94D9078823D1F383E294EF019728
S11309E0F1F700C0000088E398E20E94D907811162
S11309F0D1CF60E08CE298E20E944F0760916929B0
S1130A0082E398E20E944F0783E294EF0197F1F7A3
S1130A1000C0000088E398E20E94D9078823D1F33C
S1130A2083E294EF0197F1F700C00000D0E029C001
S1130A308FE398E20E94D907811123C0D11104C029
S1130A4010926929D1E005C0809169298F5F809354
S1130A5069296091692982E398E20E944F0783E241
S1130A6094EF0197F1F700C000008FE398E20E9431
S1130A70D9078823D1F383E294EF0197F1F700C0FB
S1130A80000088E398E20E94D9078111D1CF60E089
S1130A9082E398E20E944F07C11102C0DD2319F1DD
S1130AA0409169296091672888E698E20E948F0640
S1130AB06091682880916528909166280E94D106EB
S1130AC060E082E398E20E944F0760E08CE298E2E3
S1130AD00E944F079FE52EEA8AE091502040804013
S1130AE0E1F700C00000DF91CF910895FF920F93CA
S1130AF01F93CF93DF9300D000D0CDB7DEB788ED3E
S1130B0084BFE0E6F0E0108284BF83E0818300E4E8
S1130B1014E082E0F80181838583E0E0F4E081E081
S1130B208183868384E0F801818386E498E20E94CD
S1130B303A07E0E1F1E080818160808388E182838B
S1130B40F80180898160808B86E498E20E94D9074D
S1130B50882321F084E08093460403C084E08093DA
S1130B604504789482E398E20E9404078CE298E2B8
S1130B700E9404078FE398E20E943A0788E398E210
S1130B800E943A0784E298E20E94170780E89AE0FC
S1130B900E94EB0780E99AE00E94EB070E94D706C7
S1130BA00E94AC000E9469080E94EB0688E398E268
S1130BB00E94D907811146C000E010E021C08FE0F7
S1130BC089831A828B831C82E1E0F0E0EC0FFD1F25
S1130BD0E00FF11FF0806F2D82E398E20E944F072F
S1130BE06F2D8CE298E20E944F07FFEE29E482E029
S1130BF0F15020408040E1F700C000000F5F1F4F1C
S1130C0004301105E4F20BC00E946304809165284E
S1130C109091662801968093652890936628809128
S1130C206528909166288F3F910571F368F331C070
S1130C30C8010E94D406F801E759F74D80830F5F7D
S1130C401F4F02C000E010E00F3F110589F384F349
S1130C5018C021E020930704FC01E759F74D49E649
S1130C6059E267E678E280810E948606E09167286F
S1130C70F0E0EE0FFF1FEC5FF74D0190F081E02DE7
S1130C80099580916528909166288F3F910509F315
S1130C9000F380E090E02496CDBFDEBFDF91CF91DA
S1130CA01F910F91FF9008951F920F920FB60F920C
S1130CB011242F933F934F935F936F937F938F935D
S1130CC09F93AF93BF93EF93FF9386E498E20E94C0
S1130CD0D907882321F084E08093460403C084E08C
S1130CE08093450481E080934904FF91EF91BF9183
S1130CF0AF919F918F917F916F915F914F913F91B0
S1130D002F910F900FBE0F901F901895982F9295CA
S1130D109F70FB0190838F70FA018083089520E116
S1130D20629FB00111244F70642BFC01608308950D
S1130D308F706F70860F803108F0805108958F7026
S1130D406F70982F961B892F12F480E1890F0895F4
S1130D508F706F70869F802D112401C08051803167
S1130D60E8F708958F706F700E94060808958F70D9
S1130D706F700E940608892F08958F706F7090E03D
S1130D8002C0880F991F6A95E2F78F7008958F70DB
S1130D906F7090E002C0959587956A95E2F78F7021
S1130DA008950E947C0808950E9474080895E0EA5A
S1130DB0F0E0808180618083818182608183E0E0D2
S1130DC0F6E080E482838EE1868380E28383158269
S1130DD081E080830895E0EAF0E081818D7F818362
S1130DE0E0E0F6E080818E7F8083089581E0809347
S1130DF0080680910B0680FFFCCFE0E0F6E081E07E
S1130E008387808991890895DC011296ED91FC9184
S1130E10139740812FE030E0C90115960C9002C071
S1130E20880F991F0A94E2F7842B80830895DC01CC
S1130E301296ED91FC91139720818FE090E0179624
S1130E400C90179702C0880F991F0A94E2F78095B7
S1130E508223808320E030E009C0ED91FC9111975A
S1130E60E20FF31F98E090832F5F3F4F243031054A
S1130E70A4F30895FC01A281B3818C9121E030E0B8
S1130E80068002C0220F331F0A94E2F7209528231C
S1130E902C930190F081E02D88E080830895DC019B
S1130EA014968C911497813029F4E62FF0E0E65FD4
S1130EB0FD4A6081ED91FC911197208115963C913A
S1130EC08FE090E0032E02C0880F991F0A94E2F786
S1130ED070E002C0660F771F3A95E2F7962F9823C9
S1130EE0922B8095682B692360830895DC01149606
S1130EF08C911497813019F483E0841B482FED9171
S1130F00FC911197208115968C9150E0480F511D4A
S1130F1081E090E0042E02C0880F991F0A94E2F742
S1130F2070E002C0660F771F4A95E2F7962F982368
S1130F30922B8095682B692360830895FC01A0811E
S1130F40B1812C9130E0058002C0359527950A9433
S1130F50E2F72F708481813031F4E22FF0E0E65F14
S1130F60FD4A80810895822F0895FC01A481B581F2
S1130F702C9130E0078002C0359527950A94E2F75A
S1130F802F708681813031F4E22FF0E0E65FFD4A74
S1130F9080810895822F0895CF93C62F0E94B507AC
S1130FA090E002C095958795CA95E2F78170CF913C
S1130FB00895DC011496ED91FC911597208130E0A1
S1130FC016960C9002C0359527950A94E2F781E0B5
S1130FD020FF80E00895FC0182E0808387E1818323
S1130FE08FEF84870895FC0180818E7F80838FEF4B
S1130FF084876F70A62FB0E0A65EBD4A8C9185876A
S1131000128613868081816080830895991B79E01C
S113101004C0991F961708F0961B881F7A95C9F784
S113102080950895EE0FFF1F0590F491E02D09942B
S11310308F929F92AF92BF92CF92DF92EF92FF92E4
S1131040CF93DF93EC01688179818A819B8161155B
S113105071058105910521F464E279ED8BE597E052
S11310602DE133EF41E050E00E94900849015A011C
S11310709B01AC01A7EAB1E40E94AF086B017C01BB
S1131080ACEEB4EFA50194010E94BD08DC01CB01D4
S11310908C0D9D1DAE1DBF1DB7FF03C00197A10997
S11310A0B04888839983AA83BB839F77DF91CF91CC
S11310B0FF90EF90DF90CF90BF90AF909F908F9074
S11310C008950E941808089580E098E20E94180884
S11310D00895A0E0B0E08093002890930128A093A5
S11310E00228B0930328089503D080819927089596
S11310F0FC01E050FC4E0895262FAF93BF93E0E02F
S1131100F0E1328131FDFDCFDC01A050BC4E2C93C7
S11311102DE924BF23E020830196BF91AF91089568
S1131120052E97FB1EF400940E94A70857FD07D0D4
S11311300E94C20807FC03D04EF40C94A7085095F3
S11311404095309521953F4F4F4F5F4F08959095AF
S11311508095709561957F4F8F4F9F4F08950E94A2
S1131160E408A59F900DB49F900DA49F800D911D40
S113117011240895B7FF0C94AF080E94AF08821B96
S1131180930B0895A1E21A2EAA1BBB1BFD010DC0EF
S1131190AA1FBB1FEE1FFF1FA217B307E407F50723
S11311A020F0A21BB30BE40BF50B661F771F881FFF
S11311B0991F1A9469F760957095809590959B0195
S11311C0AC01BD01CF010895A29FB001B39FC0013E
S11311D0A39F700D811D1124911DB29F700D811D5F
S10D11E01124911D0895F894FFCF27
S11311EA0100020005000A00140032006400C8006D
S11311FAF401E803D00788131027204E307560EAFB
S113120A0008040C020A060E0109050D030B070F58
S113121A000102030406090D131B283A5479B0FF8E
S113122A01000000A90399034304DC00F200B90396
S113123A1B037E0200010E011C013B0183015A01BA
S113124A6C0175017104600468040101240420041A
S113125A00000404000400047504600468040570B2
S111126A0460046804005004400448040000BA
S9030000FC
